:0300000002001EDD
:03000B0002002FC1
:10001B000200437B017C2175812F114CD2AFD2A9F9
:10002B00D2AB80FEB201200104117F013A1166C2EE
:10003B008D758A78758CEC32C28F758BB0758D3C53
:10004B00327589011154115D22D28C758A78758CA9
:10005B00EC22D28E758BB0758D3C22B2D511ACEBE8
:10006B0075F00A8420D508C2B5E5F011A7017EC250
:10007B00B411A722B20011ACEC75F00A8420000871
:10008B00C2B7E5F011A70197C2B611A72290009D48
:10009B009322C0F9A4B0999282F880901198F5A0A0
:0A00AB0022D2B4D2B5D2B6D2B722E9
:00000001FF
