:0300000002000EED
:10000B000200237B5F7C21758901D28C758A787500
:10001B008CECD2AFD2A980FEB201200104115201A7
:10002B002E1137C28D758A78758CEC32B2D5117F53
:10003B00EB75F00A8420D508C2B5E5F0117A0151B1
:10004B00C2B4D2B5117A22B200117FEC75F00A84DA
:10005B00200008C2B7E5F0117A016AC2B6117A2204
:10006B009000709322C0F9A4B0999282F8809011FD
:0D007B006BF5A022D2B4D2B5D2B6D2B72216
:00000001FF
