:0300000002001EDD
:03000B00020031BF
:10001B000200457B017C037DEC75812F1156D2AF1D
:10002B00D2A9D2AB80FEB2012001041189013C118F
:10003B0070C28D758A78758CEC320DBD000411BFC2
:10004B007DECC28F758BB0758D3C32758901115E5D
:10005B00116722D28C758A78758CEC22D28E758BB7
:10006B00B0758D3C22B2D511B6EB75F00A8420D554
:10007B0008D2B5E5F011B10188D2B411B122B200AA
:10008B0011B6EC75F00A84200008D2B7E5F011B177
:10009B0001A1D2B611B1229000A79322C0F9A4B04E
:1000AB00999282F8809011A2F5A022C2B4C2B5C277
:1000BB00B6C2B7221CBCFF101BBBFF0AC28E7B0053
:0A00CB007C0011D401D37C3B2222FB
:00000001FF
