:0300000002001EDD
:03000B0002002FC1
:10001B000200437B017C2175812F114CD2AFD2A9F9
:10002B00D2AB80FEB2012001041181013A1166C2EC
:10003B008D758A78758CEC32C28F758BB0758D3C53
:10004B00327589011154115D22D28C758A78758CA9
:10005B00EC22D28E758BB0758D3C22B2D511AEEBE6
:10006B0075F00A8420D508C2B5E5F011A90180C24C
:10007B00B4D2B511A922B20011AEEC75F00A8420EE
:10008B000008C2B7E5F011A90199C2B611A92290D7
:10009B00009F9322C0F9A4B0999282F88090119A94
:0C00AB00F5A022D2B4D2B5D2B6D2B72252
:00000001FF
