:0300000002001EDD
:03000B00020033BD
:10001B000200437B007C037D0011B075812F1150D2
:10002B00D2AFD2A9D2AB80FEB20120010411830161
:10003B003E116AC28D115C320DBD140411B97D00E5
:10004B00C28F116332758911D28CD28E115C116300
:10005B0022758A78758CEC22758BB0758D3C22B22B
:10006B00D511B0EB75F00A8420D508D2B5E5F011A7
:10007B00AB0182D2B411AB22B20011B0EC75F00A15
:10008B0084200008D2B7E5F011AB019BD2B611ABBF
:10009B00229000A19322C0F9A4B0999282F880908B
:1000AB00119CF5A022C2B4C2B5C2B6C2B7221CBC09
:1000BB00FF101BBBFF0AC28E7B007C0011CE01CD53
:0600CB007C3B22B2802202
:00000001FF
